:020000040000FA
:100000000C9450020C9478020C9478020C947802B0
:100010000C9478020C9478020C9478020C94780278
:100020000C9478020C9478020C9478020C94A0083A
:100030000C9478020C9478020C9478020C94780258
:100040000C94FE070C9478020C946E080C944808EB
:100050000C9478020C9478020C9478020C94780238
:100060000C9478020C947802426173652020202061
:100070003D200041726D20322020203D2000417241
:100080006D20312020203D2000456C626F772020BC
:10009000203D20005477697374205772697374206F
:1000A0003D200054696C74205772697374203D20A0
:1000B00000436C6177202020203D20003D3D3D3DE8
:1000C0003D2043555252454E5420434F4D4D414ED5
:1000D00044454420504F5345203D3D3D3D3D003D6E
:1000E0003D3D3D3D3D3D3D3D3D3D3D3D3D3D3D3D40
:1000F0003D3D3D3D3D3D3D3D3D3D3D3D3D3D3D3D30
:100100003D3D3D3D3D004578616D706C653A207424
:1001100079706520422B20616E6420707265737364
:100120002053656E642E002020422B202F20422D6C
:100130002020202042617365002020412B202F20A9
:10014000412D2020202041726D20313B2041726DD5
:100150002032206D6972726F7273206175746F6DD9
:1001600061746963616C6C79002020452B202F201D
:10017000452D20202020456C626F770020205732CB
:100180002B202F2057322D2020547769737420574D
:100190007269737400202057312B202F2057312D86
:1001A000202054696C7420577269737400202043B6
:1001B0002B202F20432D20202020436C6177004DE1
:1001C0006F7665206F6E65206A6F696E7420627944
:1001D0002064656772656573202872656C61746957
:1001E0007665293A0020204D4F5645207820792009
:1001F0007A2061206220632020204162736F6C7539
:100200007465206A6F696E74206D6F766520286250
:100210006173652C2061726D312C20656C626F7783
:100220002C2074696C742C2074776973742C20638F
:100230006C61772900202057414B455550202020E4
:1002400020204D6F766520616C6C206D6F746F722D
:10025000732061726F756E64002020484F4D4520F9
:100260002020202020204D6F766520746F20746838
:100270006520484F4D4520706F73650020204C4924
:100280004D49545320202020205072696E742073F1
:1002900061666520616E676C65206C696D69747359
:1002A00000202053484F572020202020202050722B
:1002B000696E742063757272656E7420706F7365F9
:1002C00000202048454C502020202020202053682A
:1002D0006F772074686973206C6973740047656E6A
:1002E0006572616C20636F6D6D616E64733A00536B
:1002F000657269616C204D6F6E69746F723A203956
:100300003630302062617564202B204E65776C6931
:100310006E65003D3D3D3D3D3D2057454544494EC0
:10032000472041524D2043414C4942524154494F8C
:100330004E203D3D3D3D3D3D00556E6B6E6F776EF1
:10034000206A6F696E74206E616D652E00556E6B4C
:100350006E6F776E206A6F696E74206E616D652EA8
:100360000000000000240027002A00494E464F3EAE
:1003700020496E697420536574757020436F6D70E9
:100380006C6574656400536D6172742057656564B3
:10039000696E672041726D2043616C69627261749D
:1003A000696F6E20526561647900494E464F3E2068
:1003B00052756E6E696E67205365747570004D6F6F
:1003C00076656420746F20484F4D4520706F7365CB
:1003D0002E00556E6B6E6F776E20636F6D6D616E64
:1003E000642E20547970652048454C502E00200022
:1003F0004D6F76656420746F206162736F6C7574E5
:100400006520706F73653A20004D4F564520726528
:1004100071756972657320362076616C7565733A03
:1004200020626173652061726D3120656C626F7747
:100430002074696C7420747769737420636C6177BD
:10044000004920414D204D4F56494E472100434F12
:100450004D4D414E443A0000000000250028002B7D
:10046000000404040404040404020202020202035D
:100470000303030303010204081020408001020467
:1004800008102001020408102000000008000201EA
:1004900000000304070000000000000000007709CE
:1004A00011241FBECFEFD8E0DEBFCDBF11E0A0E02A
:1004B000B1E0EEEDFCE102C005900D92AE36B10761
:1004C000D9F722E0AEE6B1E001C01D92AE37B20727
:1004D000E1F712E0C0E5D2E004C02197FE010E94DE
:1004E000500ECF34D107C9F70E94E2090C946D0E6B
:1004F0000C94000090E0FC01E757FB4F2491FC01B5
:10050000EB58FB4F3491FC01EF59FB4FE491EE2384
:10051000C9F0222339F0233001F1A8F4213019F178
:10052000223029F1F0E0EE0FFF1FE95AFB4FA591B1
:10053000B4918FB7F894EC91611126C030953E23A9
:100540003C938FBF08952730A9F02830C9F024309C
:1005500049F7809180008F7D03C0809180008F7764
:1005600080938000DFCF84B58F7784BDDBCF84B5E7
:100570008F7DFBCF8091B0008F778093B000D2CF7A
:100580008091B0008F7DF9CF3E2BDACF3FB7F89442
:100590008091BA019091BB01A091BC01B091BD01C5
:1005A00026B5A89B05C02F3F19F00196A11DB11DCE
:1005B0003FBFBA2FA92F982F8827BC01CD01620F0A
:1005C000711D811D911D42E0660F771F881F991FC5
:1005D0004A95D1F70895AF92BF92CF92DF92EF92F2
:1005E000FF920F931F93CF93DF936C017B018B01DD
:1005F000040F151FEB015E01AE18BF08C017D1072D
:1006000059F06991D601ED91FC910190F081E02DB6
:10061000C6010995892B79F7C501DF91CF911F910B
:100620000F91FF90EF90DF90CF90BF90AF90089523
:10063000FC01538D448D252F30E0842F90E0821BE8
:10064000930B541710F0CF96089501970895FC016D
:10065000918D828D981761F0A28DAE0FBF2FB11DC5
:100660005D968C91928D9F5F9F73928F90E008951D
:100670008FEF9FEF0895FC01918D828D981731F0D7
:10068000828DE80FF11D858D90E008958FEF9FEF2B
:100690000895FC01918D228D892F90E0805C9F4F01
:1006A000821B91098F73992708958EEB91E00E9428
:1006B000490321E0892B09F420E0822F089580E08E
:1006C00090E0892B29F00E94550381110C940000C1
:1006D0000895FC01A48DA80FB92FB11DA35ABF4FD7
:1006E0002C91848D90E001968F739927848FA68931
:1006F000B7892C93A089B1898C91837080648C9385
:10070000938D848D981306C00288F389E02D808133
:100710008F7D80830895EF92FF920F931F93CF9365
:10072000DF93EC0181E0888F9B8D8C8D98131AC02C
:10073000E889F989808185FF15C09FB7F894EE8913
:10074000FF896083E889F989808183708064808370
:100750009FBF81E090E0DF91CF911F910F91FF90BB
:10076000EF900895F62E0B8D10E00F5F1F4F0F7363
:100770001127E02E8C8D8E110CC00FB607FCFACF1E
:10078000E889F989808185FFF5CFCE010E94690350
:10079000F1CFEB8DEC0FFD2FF11DE35AFF4FF082EF
:1007A0009FB7F8940B8FEA89FB8980818062CFCF55
:1007B0000F931F93CF93DF938C01D0E0C0E0F8013B
:1007C000EC0FFD1F6491662341F08EEB91E00E94D7
:1007D0008B03892B11F02196F2CFCE01DF91CF91BF
:1007E0001F910F910895CF93DF93EC01888D88239B
:1007F000B9F0AA89BB89E889F9898C9185FD03C084
:10080000808186FD0DC00FB607FCF7CF8C9185FF68
:10081000F2CF808185FFEDCFCE010E946903E9CF41
:10082000DF91CF910895CF92DF92EF92FF92CF9315
:10083000DF93EC01603282E07807CCF5653B71050F
:1008400014F064EB70E0898128E830E0281B31095E
:1008500087FD3395220F331F220F331F6901330F9A
:10086000EE08FF088A8128E532E0281B310987FD60
:100870003395220F331F220F331F032E000C440B1E
:10088000550B2C193D094E095F09DB0177FF02C0AA
:10089000B0E0A0E00E940B0E24EB30E040E050E01E
:1008A0000E94E10DC20ED31EE41EF51EB601E881C2
:1008B000EC3070F5298188E890E0821B910927FDD2
:1008C0009395880F991F880F991F681779077CF0F7
:1008D0002A8188E592E0821B910927FD9395880F74
:1008E000991F880F991F681779070CF4CB0102979D
:1008F000880F991F4FB7F8942E2F30E0F901EE0FB3
:10090000FF1FE20FF31FE059FE4F928381834FBF19
:10091000DF91CF91FF90EF90DF90CF900895CF932C
:10092000DF93DC018C918C3008F06DC0CB01FB01B2
:10093000EB58FB4F24918F599B4FFC0184918823E6
:1009400099F090E0880F991FFC01EF59FC4FC59179
:10095000D491FC01E95AFB4F859194918FB7F8949B
:10096000E881E22BE8838FBF8C91282F30E0F901DA
:10097000EE0FFF1FE20FF31FE059FE4F962F9F73FC
:100980006081607C692B608311961C92119712968E
:100990001C9212972CE0622F0E94440E829FB0019D
:1009A000112430E020E0AB01420F531FFA01EE0F9B
:1009B000FF1FE40FF51FE059FE4F908196FD16C012
:1009C0002F5F3F4F2C30310571F781110FC010920E
:1009D000800082E080938100109285001092840054
:1009E000B19A80916F00826080936F00EC918E2F9E
:1009F00090E0FC01EE0FFF1FE80FF91FE059FE4FDA
:100A00008081806480838C91DF91CF910895FC0177
:100A100001900020E9F73197AF01481B590BBC0149
:100A20008EEB91E00C94EB0282E191E00C940705CF
:100A3000CF93DF930E94D803EC010E9414058C0F22
:100A40009D1FDF91CF9108950E94140583E193E0EB
:100A50000E9418058FEE92E00E9418050E9414056E
:100A60008DED92E00E94180581EC92E00E9418053D
:100A700081EA92E00E9418058CE792E00E94180536
:100A800089E592E00E94180585E392E00E9418052E
:100A900085EE91E00E9418050E9414058FEB91E00D
:100AA0000E9418058DEA91E00E94180585E991E001
:100AB0000E9418058CE791E00E94180589E691E0F4
:100AC0000E94180589E391E00E94180587E291E0F1
:100AD0000E9418050E94140586E091E00E94180506
:100AE0008FED90E00E9418050C9414058F929F9250
:100AF000AF92BF920F931F93CF93DF93CDB7DEB723
:100B0000A1970FB6F894DEBF0FBECDBF19A2423039
:100B100008F44AE08E010F5D1F4F842E912CB12CFA
:100B2000A12CA50194010E94130EE62FB901CA0160
:100B3000EA30F4F4E05DD801EE938D01232B242BF1
:100B4000252B79F790E080E0109719F0CD010E94F5
:100B50000705A1960FB6F894DEBF0FBECDBFDF919B
:100B6000CF911F910F91BF90AF909F908F9008955C
:100B7000E95CE1CFCF92DF92EF92FF92CF93DF93C8
:100B80006B017C016DE28EEB91E00E948B03EC0126
:100B900066277727CB016C197D098E099F094AE0EA
:100BA0000E9476058C0F9D1FDF91CF91FF90EF90F3
:100BB000DF90CF900895CF93DF93BC01990F880BFE
:100BC000990B97FF0AC00E94BA05EC010E94140518
:100BD0008C0F9D1FDF91CF9108954AE00E9476050A
:100BE000F4CF0E9414058CEB90E00E94180581EB75
:100BF00090E00E94D80380916502909166020E9465
:100C0000DB0583EA90E00E94D80380916302909113
:100C100064020E94DB0584E990E00E94D803809181
:100C20006102909162020E94DB0589E890E00E94D7
:100C3000D80380915F02909160020E94DB058EE7ED
:100C400090E00E94D80380915D0290915E020E9424
:100C5000DB0583E790E00E94D80320915D0230918C
:100C60005E0284EB90E0821B930B0E94DB0588E61A
:100C700090E00E94D80380915B0290915C020C94FA
:100C8000DB05AF92BF92CF92DF92EF92FF920F936C
:100C90001F93CF93DF936091650270916602643B6E
:100CA000710514F063EB70E06436710514F464E6CA
:100CB00070E07093660260936502A0906302B0904A
:100CC00064028BE5A816B1041CF03AE5A32EB12C02
:100CD000B7FE02C0B12CA12CB0926402A0926302B4
:100CE000C0906102D090620284EBC816D1041CF05F
:100CF00023EBC22ED12CD7FE02C0D12CC12CD09216
:100D00006202C0926102E0905F02F090600283E8AC
:100D1000E816F1041CF092E8E92EF12C8AE0E816BE
:100D2000F1041CF48AE0E82EF12CF0926002E092CB
:100D30005F02C0915D02D0915E02C739D10514F007
:100D4000C6E9D0E0CE31D10514F4CEE1D0E0D093A5
:100D50005E02C0935D0200915B0210915C02013A59
:100D6000110514F000EA10E017FF02C010E000E0E7
:100D700010935C0200935B0289E792E00E941304E7
:100D8000B50186E792E00E941304B60183E792E082
:100D90000E941304B70180E792E00E941304BE0191
:100DA0008DE692E00E94130464EB70E06C1B7D0BF7
:100DB0008AE692E00E941304B80187E692E00E945E
:100DC0001304DF91CF911F910F91FF90EF90DF906F
:100DD000CF90BF90AF900C94F1058F929F92AF92FD
:100DE000BF92CF92DF92EF92FF92CF93DF93EC010D
:100DF0007B016A0165E171E00E94560E892B59F56D
:100E0000F0926602E09265020E9441060D2C000CF1
:100E1000EE08FF080E94C6024B015C01C114D10418
:100E2000E104F10409F461C00E94C602681979095D
:100E30008A099B09683E73408105910578F321E09A
:100E4000C21AD108E108F10888EE880E83E0981EE6
:100E5000A11CB11CE3CF6AE171E0CE010E94560EE5
:100E6000892B29F4F0926402E0926302CDCF64E210
:100E700071E0CE010E94560E892B29F4F092620295
:100E8000E0926102C1CF6FE271E0CE010E94560E86
:100E9000892B29F4F0926002E0925F02B5CF65E3FE
:100EA00071E0CE010E94560E892B29F4F0925E0269
:100EB000E0925D02A9CF6AE371E0CE010E94560E76
:100EC000892B29F4F0925C02E0925B029DCF8DE4C5
:100ED00093E0DF91CF91FF90EF90DF90CF90BF90A4
:100EE000AF909F908F900C941805DF91CF91FF9059
:100EF000EF90DF90CF90BF90AF909F908F9008952C
:100F00000F931F93CF93DF938C01EB0165E171E0A9
:100F10000E94560E892B81F48091650290916602A1
:100F2000C80FD91FD0936602C0936502DF91CF919D
:100F30001F910F910C9441066AE171E0C8010E9473
:100F4000560E892B59F48091630290916402C80F68
:100F5000D91FD0936402C0936302E8CF64E271E0CA
:100F6000C8010E94560E892B59F48091610290911C
:100F70006202C80FD91FD0936202C0936102D6CF1C
:100F80006FE271E0C8010E94560E892B59F48091DE
:100F90005F0290916002C80FD91FD0936002C09386
:100FA0005F02C4CF65E371E0C8010E94560E892B31
:100FB00059F480915D0290915E02C80FD91FD093C1
:100FC0005E02C0935D02B2CF6AE371E0C8010E9485
:100FD000560E892B59F480915B0290915C02C80FE8
:100FE000D91FD0935C02C0935B02A0CF89E393E04A
:100FF000DF91CF911F910F910C9418051F920F92C2
:101000000FB60F9211242F933F938F939F93AF931B
:10101000BF938091B6019091B701A091B801B091B2
:10102000B9013091B50123E0230F2D3758F5019612
:10103000A11DB11D2093B5018093B6019093B70116
:10104000A093B801B093B9018091BA019091BB010E
:10105000A091BC01B091BD010196A11DB11D80936D
:10106000BA019093BB01A093BC01B093BD01BF91A5
:10107000AF919F918F913F912F910F900FBE0F9045
:101080001F90189526E8230F0296A11DB11DD2CFFF
:101090001F920F920FB60F9211242F933F934F93ED
:1010A0005F936F937F938F939F93AF93BF93EF93D0
:1010B000FF938EEB91E00E946903FF91EF91BF9146
:1010C000AF919F918F917F916F915F914F913F91E0
:1010D0002F910F900FBE0F901F9018951F920F9297
:1010E0000FB60F9211242F938F939F93EF93FF933B
:1010F000E091CE01F091CF018081E091D401F09197
:10110000D50182FD1BC090818091D7018F5F8F73C5
:101110002091D801821741F0E091D701F0E0E2542C
:10112000FE4F958F8093D701FF91EF919F918F9103
:101130002F910F900FBE0F901F9018958081F4CFC4
:101140001F920F920FB60F9211242F933F934F933C
:101150005F936F937F938F939F93AF93BF93CF933F
:10116000DF93EF93FF9380916E01C0916F01D0E008
:1011700087FF24C0109285001092840080916E0138
:101180008F5F80936E0180916E01082E000C990B89
:101190008C179D0724F480916E018C30C4F18091EE
:1011A000840090918500049680349C4908F47AC0AC
:1011B0008091840090918500049676C080916E01A4
:1011C000082E000C990B8C179D07C4F6E0916E0158
:1011D0008E2FEE0F990BFC01EE0FFF1FE80FF91F8A
:1011E000E059FE4F808186FFC9CFE0916E018E2FBE
:1011F000EE0F990BFC01EE0FFF1FE80FF91FE059EE
:10120000FE4F808160E08F730E947A02B7CF2091F9
:10121000840030918500E0916E018E2FEE0F990BC6
:10122000FC01EE0FFF1FE80FF91FE059FE4F81810F
:101230009281820F931F9093890080938800E091A0
:101240006E018E2FEE0F990BFC01EE0FFF1FE80FC2
:10125000F91FE059FE4F808186FF11C0E0916E01B9
:101260008E2FEE0F990BFC01EE0FFF1FE80FF91FF9
:10127000E059FE4F808161E08F730E947A02FF91F6
:10128000EF91DF91CF91BF91AF919F918F917F911E
:101290006F915F914F913F912F910F900FBE0F90E3
:1012A0001F90189580E49CE99093890080938800B2
:1012B0008FEF80936E01E3CFFC0190916F019C3022
:1012C00098F481E0890F80936F019083892F90E0DB
:1012D000FC01EE0FFF1FE80FF91FE059FE4F88EBEE
:1012E0009BE09283818308958FEF80830895EEEBD6
:1012F000F1E01382128288EE93E0A0E0B0E08483F4
:101300009583A683B78384E091E09183808385EC05
:1013100090E09587848784EC90E09787868780ECBF
:1013200090E0918B808B81EC90E0938B828B82ECB0
:1013300090E0958B848B86EC90E0978B868B118E5A
:10134000128E138E148E89E792E00E945C0986E764
:1013500092E00E945C0983E792E00E945C0980E7CA
:1013600092E00E945C098DE692E00E945C098AE6A8
:1013700092E00E945C0987E692E00E945C0986E99F
:1013800090E0909366028093650282E390E09093F0
:101390006402809363028AE590E0909362028093F6
:1013A00061029093600280935F028CE390E09093DF
:1013B0005E0280935D0280E590E090935C028093F2
:1013C0005B020895CF93DF93CDB7DEB72C970FB6AE
:1013D000F894DEBF0FBECDBF789484B5826084BD23
:1013E00084B5816084BD85B5826085BD85B5816029
:1013F00085BD80916E00816080936E0010928100A7
:101400008091810082608093810080918100816061
:101410008093810080918000816080938000809122
:10142000B10084608093B1008091B00081608093AE
:10143000B00080917A00846080937A0080917A0075
:10144000826080937A0080917A00816080937A0034
:1014500080917A00806880937A001092C100E091B8
:10146000CE01F091CF0182E08083E091CA01F0913A
:10147000CB011082E091CC01F091CD018FEC808303
:101480001092D601E091D201F091D30186E08083E1
:10149000E091D001F091D101808180618083E09161
:1014A000D001F091D101808188608083E091D001EA
:1014B000F091D101808180688083E091D001F0912A
:1014C000D10180818F7D808363E070E089E792E0C5
:1014D0000E948F0464E070E086E792E00E948F042F
:1014E00065E070E083E792E00E948F0466E070E0C0
:1014F00080E792E00E948F0469E070E08DE692E060
:101500000E948F046AE070E08AE692E00E948F04F5
:101510006BE070E087E692E00E948F048AEA93E035
:101520000E9418050E94410686E893E00E94180573
:101530000E9424058BE693E00E941805CE010196D7
:101540006C0182E3282E312C9AE5A92EB12C2CE3D4
:10155000422E512C8EEB91E00E9449031816190679
:101560000CF0D0C28EEB91E00E9427038D3091F3F6
:10157000E091B4018A3009F0B9C2F0E0EC56FE4FB8
:1015800010826FE371E084E991E00E94560E892B8E
:1015900029F40E9424051092B401DCCF8EE494E07B
:1015A0000E94D80384E991E00E9407050E94140577
:1015B00044E050E064E471E084E991E00E945F0E51
:1015C0008C01892B09F0C2C081E494E00E941805C7
:1015D000F6012CE011922A95E9F728E931E0C901DA
:1015E0002F5F3F4FFC0140814032C9F369E471E055
:1015F0000E94AD0D36014601F12CE12C0097A1F0BF
:10160000F6E0EF16F104B9F02FEFE21AF20A0E94A9
:101610008F0DF401819391934F0169E471E090E0A3
:1016200080E00E94AD0DEACF89E094E0F6E0EF168D
:10163000F10409F0DFC1AB85BC852985FA854F81AE
:1016400038856D815E81EB817C8189819A81813AC7
:10165000910514F080EA90E097FF02C090E080E0EE
:1016600090935C0280935B028E2F972F87399105B0
:1016700014F086E990E08E31910514F48EE190E04B
:1016800090935E0280935D02862F952F833891059B
:1016900014F082E890E08A30910514F48AE090E03A
:1016A0009093600280935F02842F932F8B35910576
:1016B00014F08AE590E097FF02C090E080E09093FC
:1016C000640280936302822F9F2F843B910514F064
:1016D00083EB90E097FF02C090E080E0909362027D
:1016E00080936102CD01A43BB10514F083EB90E03F
:1016F0008436910514F484E690E09093660280931A
:1017000065020E94410680EF93E00E94D803F30136
:10171000619171913F01072E000C880B990B97FF87
:1017200011C00E94BA050530110521F08EEE93E03C
:101730000E94D8030F5F1F4F0630110541F70E942A
:10174000140529CF4AE00E947605EDCF6BE471E0E5
:1017500084E991E00E94560E892B19F40E94F1054C
:101760001ACF60E571E084E991E00E94560E892B62
:10177000C9F448EE53E06EE170E08AE391E00E9424
:10178000ED0648EE53E06CE870E08AE391E00E94D9
:10179000ED0648EE53E060E570E08AE391E00E94D8
:1017A000ED06F9CE65E571E084E991E00E94560E00
:1017B000892B09F087C048EE53E066E470E085E3CA
:1017C00091E00E94ED0648EE53E068E270E085E3A8
:1017D00091E00E94ED0648EE53E06CE370E085E393
:1017E00091E00E94ED0648EE53E06EE170E08AE37E
:1017F00091E00E94ED0648EE53E06CE870E08AE369
:1018000091E00E94ED0648EE53E060E570E08AE367
:1018100091E00E94ED0648EE53E064E670E08FE24E
:1018200091E00E94ED0648EE53E062E370E08FE243
:1018300091E00E94ED0648EE53E066E470E08AE134
:1018400091E00E94ED0648EE53E070E060E08AE12E
:1018500091E00E94ED0648EE53E06AEA70E085E10F
:1018600091E00E94ED0648EE53E063E770E085E109
:1018700091E00E94ED0650E040E06FEA70E084E203
:1018800091E00E94ED0650E040E065E070E084E207
:1018900091E00E94ED0650E040E06FEA70E084E2E3
:1018A00091E00E94ED0650E040E065E070E084E2E7
:1018B00091E00E94ED0650E040E06AE570E084E2CD
:1018C00091E06DCF6CE571E084E991E00E94560EE5
:1018D000892B09F05FC048EE53E060E570E08AE3D1
:1018E00091E00E94ED0648EE53E06CE870E085E37D
:1018F00091E00E94ED0648EE53E066E470E08FE26E
:1019000091E00E94ED0648EE53E06AE070E08AE163
:1019100091E00E94ED0648EE53E06AE570E084E253
:1019200091E00E94ED0648EE53E06EE670E085E13E
:1019300091E00E94ED0648EE53E06BE970E084E22E
:1019400091E00E94ED0648EE53E06CE370E085E321
:1019500091E00E94ED0648EE53E060EA70E08AE311
:1019600091E00E94ED0648EE53E060EA70E08AE103
:1019700091E00E94ED0648EE53E068E770E085E3F1
:1019800091E00E94ED0648EE53E066E970E085E1E3
:1019900091E005CF63E671E084E991E00E94560E84
:1019A000892B41F068E671E084E991E00E94560ECF
:1019B000892B19F586E990E0909366028093650281
:1019C0003092640220926302B0926202A09261029D
:1019D000B0926002A0925F0250925E0240925D025D
:1019E000E0E5F0E0F0935C02E0935B020E944106C8
:1019F0008EEB93E00E941805CECD84E991E0FC01C6
:101A000001900020E9F7CF0185599140823091057E
:101A1000A1F4809194018334C9F58091950165E02A
:101A200070E08B3229F08D3209F05DC06BEF7FEFF3
:101A300085E191E00E948007AECD039709F053C085
:101A400080919401843509F04EC0809195018934CC
:101A500071F48091960165E070E08B3229F08D324F
:101A600009F041C06BEF7FEF8AE191E0E3CF87356A
:101A7000D1F58091960165E070E08B3221F08D32D6
:101A800091F56BEF7FEF84E291E0D4CF853469F478
:101A9000809195016AE070E08B3221F08D3219F56A
:101AA00066EF7FEF8FE291E0C5CF813469F48091DA
:101AB00095016AE070E08B3221F08D32A1F466EF7F
:101AC0007FEF85E391E0B6CF823469F48091950190
:101AD0006AE070E08B3221F08D3229F466EF7FEFFF
:101AE0008AE391E0A7CF82ED93E084CFEF3108F055
:101AF00031CD91E09E0F9093B401F0E0EC56FE4F93
:101B0000808328CD80E090E0892B09F423CD0E94CA
:101B10005503882309F41ECD0E9400001BCDFC0153
:101B200088279927E89421912032E9F3293010F091
:101B30002E30C8F32B3241F02D3239F4689404C0B2
:101B40000E94D90D820F911D219120532A30C0F39C
:101B50001EF4909581959F4F08954CE752E00E94A6
:101B6000B20D0895FA01A191B081009719F4109770
:101B7000E1F0CD01DC01CD010D90002011F4C00198
:101B800013C0FB012191222319F02015D9F7F3CFBF
:101B9000FB012191201519F41E92119606C02223F3
:101BA000C1F70D900020A1F7D001FA01A193B083F5
:101BB00008957AE0979F902D879F802D910D112495
:101BC0000895052E97FB1EF400940E94F80D57FD12
:101BD00007D00E94130E07FC03D04EF40C94F80DAE
:101BE00050954095309521953F4F4F4F5F4F089549
:101BF00090958095709561957F4F8F4F9F4F089579
:101C00000E94350EA59F900DB49F900DA49F800D4E
:101C1000911D11240895B7FF0C94000E0E94000E30
:101C2000821B930B0895A1E21A2EAA1BBB1BFD0178
:101C30000DC0AA1FBB1FEE1FFF1FA217B307E407AB
:101C4000F50720F0A21BB30BE40BF50B661F771F03
:101C5000881F991F1A9469F76095709580959095E3
:101C60009B01AC01BD01CF010895A29FB001B39FBC
:101C7000C001A39F700D811D1124911DB29F700D95
:101C8000811D1124911D0895991B79E004C0991FAD
:101C9000961708F0961B881F7A95C9F780950895C6
:101CA000EE0FFF1F0590F491E02D0994FB01DC017C
:101CB0008D91019080190110D9F3990B0895FB01C2
:101CC000DC014150504030F08D910190801919F4A1
:101CD0000020B9F7881B990B0895F894FFCF0000F6
:101CE00000008B03EB021803F303490327033B03B4
:101CF0000D0A00636C61770074696C7457726973C4
:101D000074007477697374577269737400656C62D8
:101D10006F770061726D3100626173650048454CF8
:101D200050004D4F564500200053484F5700544532
:101D300053540057414B45555000464C4F57455260
:0C1D400000484F4D4500534C45455000F5
:107E0000112484B714BE81FFF0D085E080938100F7
:107E100082E08093C00088E18093C10086E0809377
:107E2000C20080E18093C4008EE0C9D0259A86E02C
:107E300020E33CEF91E0309385002093840096BBD3
:107E4000B09BFECF1D9AA8958150A9F7CC24DD24C4
:107E500088248394B5E0AB2EA1E19A2EF3E0BF2EE7
:107E6000A2D0813461F49FD0082FAFD0023811F036
:107E7000013811F484E001C083E08DD089C08234E0
:107E800011F484E103C0853419F485E0A6D080C0E4
:107E9000853579F488D0E82EFF2485D0082F10E0AE
:107EA000102F00270E291F29000F111F8ED06801E7
:107EB0006FC0863521F484E090D080E0DECF843638
:107EC00009F040C070D06FD0082F6DD080E0C81688
:107ED00080E7D80618F4F601B7BEE895C0E0D1E017
:107EE00062D089930C17E1F7F0E0CF16F0E7DF06D8
:107EF00018F0F601B7BEE89568D007B600FCFDCFD4
:107F0000A601A0E0B1E02C9130E011968C91119780
:107F100090E0982F8827822B932B1296FA010C0160
:107F200087BEE89511244E5F5F4FF1E0A038BF0790
:107F300051F7F601A7BEE89507B600FCFDCF97BE46
:107F4000E89526C08437B1F42ED02DD0F82E2BD052
:107F50003CD0F601EF2C8F010F5F1F4F84911BD097
:107F6000EA94F801C1F70894C11CD11CFA94CF0C13
:107F7000D11C0EC0853739F428D08EE10CD085E9AC
:107F80000AD08FE07ACF813511F488E018D01DD067
:107F900080E101D065CF982F8091C00085FFFCCF94
:107FA0009093C60008958091C00087FFFCCF809118
:107FB000C00084FD01C0A8958091C6000895E0E648
:107FC000F0E098E1908380830895EDDF803219F02E
:107FD00088E0F5DFFFCF84E1DECF1F93182FE3DFCA
:107FE0001150E9F7F2DF1F91089580E0E8DFEE27F6
:047FF000FF270994CA
:027FFE00040479
:00000001FF
